{
  "address": "0x98c5ED226c8f721DCa2ceb8Cd587cb6d4bBd0ebB",
  "abi": [
    {
      "inputs": [
        {
          "internalType": "address",
          "name": "owner",
          "type": "address"
        }
      ],
      "stateMutability": "nonpayable",
      "type": "constructor"
    },
    {
      "inputs": [
        {
          "internalType": "address",
          "name": "owner",
          "type": "address"
        }
      ],
      "name": "OwnableInvalidOwner",
      "type": "error"
    },
    {
      "inputs": [
        {
          "internalType": "address",
          "name": "account",
          "type": "address"
        }
      ],
      "name": "OwnableUnauthorizedAccount",
      "type": "error"
    },
    {
      "anonymous": false,
      "inputs": [
        {
          "indexed": false,
          "internalType": "address",
          "name": "minter",
          "type": "address"
        },
        {
          "indexed": false,
          "internalType": "address",
          "name": "receiver",
          "type": "address"
        },
        {
          "indexed": false,
          "internalType": "address",
          "name": "addressNFT",
          "type": "address"
        },
        {
          "indexed": false,
          "internalType": "uint256",
          "name": "tokenId",
          "type": "uint256"
        }
      ],
      "name": "NFTCreated",
      "type": "event"
    },
    {
      "anonymous": false,
      "inputs": [
        {
          "indexed": true,
          "internalType": "address",
          "name": "previousOwner",
          "type": "address"
        },
        {
          "indexed": true,
          "internalType": "address",
          "name": "newOwner",
          "type": "address"
        }
      ],
      "name": "OwnershipTransferred",
      "type": "event"
    },
    {
      "inputs": [
        {
          "internalType": "uint256",
          "name": "tokenId",
          "type": "uint256"
        }
      ],
      "name": "_ownerOfDegree",
      "outputs": [
        {
          "internalType": "address",
          "name": "",
          "type": "address"
        }
      ],
      "stateMutability": "view",
      "type": "function"
    },
    {
      "inputs": [
        {
          "internalType": "uint256",
          "name": "tokenId",
          "type": "uint256"
        }
      ],
      "name": "_ownerOfWork",
      "outputs": [
        {
          "internalType": "address",
          "name": "",
          "type": "address"
        }
      ],
      "stateMutability": "view",
      "type": "function"
    },
    {
      "inputs": [],
      "name": "_tokenId",
      "outputs": [
        {
          "internalType": "uint256",
          "name": "",
          "type": "uint256"
        }
      ],
      "stateMutability": "view",
      "type": "function"
    },
    {
      "inputs": [],
      "name": "degreeNFT",
      "outputs": [
        {
          "internalType": "contract ProofOfDegree",
          "name": "",
          "type": "address"
        }
      ],
      "stateMutability": "view",
      "type": "function"
    },
    {
      "inputs": [],
      "name": "getAddressNFT",
      "outputs": [
        {
          "internalType": "address",
          "name": "",
          "type": "address"
        }
      ],
      "stateMutability": "view",
      "type": "function"
    },
    {
      "inputs": [],
      "name": "getTokenId",
      "outputs": [
        {
          "internalType": "uint256",
          "name": "",
          "type": "uint256"
        }
      ],
      "stateMutability": "view",
      "type": "function"
    },
    {
      "inputs": [
        {
          "internalType": "address",
          "name": "company",
          "type": "address"
        }
      ],
      "name": "getVerified",
      "outputs": [
        {
          "internalType": "bool",
          "name": "",
          "type": "bool"
        }
      ],
      "stateMutability": "view",
      "type": "function"
    },
    {
      "inputs": [
        {
          "internalType": "address",
          "name": "to",
          "type": "address"
        },
        {
          "internalType": "string",
          "name": "uri",
          "type": "string"
        }
      ],
      "name": "mintDegree",
      "outputs": [],
      "stateMutability": "nonpayable",
      "type": "function"
    },
    {
      "inputs": [
        {
          "internalType": "address",
          "name": "to",
          "type": "address"
        },
        {
          "internalType": "string",
          "name": "uri",
          "type": "string"
        }
      ],
      "name": "mintWorkExperience",
      "outputs": [],
      "stateMutability": "nonpayable",
      "type": "function"
    },
    {
      "inputs": [],
      "name": "owner",
      "outputs": [
        {
          "internalType": "address",
          "name": "",
          "type": "address"
        }
      ],
      "stateMutability": "view",
      "type": "function"
    },
    {
      "inputs": [],
      "name": "renounceOwnership",
      "outputs": [],
      "stateMutability": "nonpayable",
      "type": "function"
    },
    {
      "inputs": [
        {
          "internalType": "address",
          "name": "minter",
          "type": "address"
        },
        {
          "internalType": "bool",
          "name": "status",
          "type": "bool"
        }
      ],
      "name": "setMinter",
      "outputs": [],
      "stateMutability": "nonpayable",
      "type": "function"
    },
    {
      "inputs": [
        {
          "internalType": "address",
          "name": "newOwner",
          "type": "address"
        }
      ],
      "name": "transferOwnership",
      "outputs": [],
      "stateMutability": "nonpayable",
      "type": "function"
    },
    {
      "inputs": [],
      "name": "workNFT",
      "outputs": [
        {
          "internalType": "contract ProofOfWork",
          "name": "",
          "type": "address"
        }
      ],
      "stateMutability": "view",
      "type": "function"
    }
  ],
  "transactionHash": "0xba891434362f5fa1757cc08ba25b94f496c96242716d668efc650b0c9964a560",
  "args": [
    "0x7fB7e3d6fcA92c0cb6Ee9787B60425111196aa93"
  ],
  "numDeployments": 2,
  "solcInputHash": "4f70405f6083b244bb9490b75b58994b",
  "bytecode": "0x608060405234801561001057600080fd5b50604051613b00380380613b0083398101604081905261002f916101a2565b806001600160a01b03811661005e57604051631e4fbdf760e01b81526000600482015260240160405180910390fd5b61006781610138565b508060405161007590610188565b6001600160a01b039091168152602001604051809103906000f0801580156100a1573d6000803e3d6000fd5b50600380546001600160a01b0319166001600160a01b039290921691909117905560405181906100d090610195565b6001600160a01b039091168152602001604051809103906000f0801580156100fc573d6000803e3d6000fd5b50600480546001600160a01b0319166001600160a01b03928316179055166000908152600260205260409020805460ff191660011790556101d2565b600080546001600160a01b038381166001600160a01b0319831681178455604051919092169283917f8be0079c531659141344cd1fd0a4f28419497f9722a3daafe3b4186f6b6457e09190a35050565b61184180610aeb83390190565b6117d48061232c83390190565b6000602082840312156101b457600080fd5b81516001600160a01b03811681146101cb57600080fd5b9392505050565b61090a806101e16000396000f3fe608060405234801561001057600080fd5b50600436106100ea5760003560e01c8063715018a61161008c578063cf456ae711610066578063cf456ae7146101d0578063ddf9ce1b146101e3578063f043d9c4146101f6578063f2fde38b1461020957600080fd5b8063715018a6146101a25780637b513b38146101ac5780638da5cb5b146101bf57600080fd5b80632a338af8116100c85780632a338af81461014b5780634d58e848146101765780635f37aecb1461017c5780636c0672bc1461018f57600080fd5b8063010a38f5146100ef578063116864f0146101065780632482251414610142575b600080fd5b6001545b6040519081526020015b60405180910390f35b6101326101143660046106c6565b6001600160a01b031660009081526002602052604090205460ff1690565b60405190151581526020016100fd565b6100f360015481565b61015e6101593660046106ea565b61021c565b6040516001600160a01b0390911681526020016100fd565b3061015e565b61015e61018a3660046106ea565b610293565b60045461015e906001600160a01b031681565b6101aa6102c5565b005b60035461015e906001600160a01b031681565b6000546001600160a01b031661015e565b6101aa6101de366004610703565b6102d9565b6101aa6101f1366004610757565b61033c565b6101aa610204366004610757565b61049d565b6101aa6102173660046106c6565b6105f6565b600480546040516331a9108f60e11b81529182018390526000916001600160a01b0390911690636352211e906024015b602060405180830381865afa158015610269573d6000803e3d6000fd5b505050506040513d601f19601f8201168201806040525081019061028d919061081b565b92915050565b6003546040516331a9108f60e11b8152600481018390526000916001600160a01b031690636352211e9060240161024c565b6102cd610634565b6102d76000610661565b565b3360009081526002602052604090205460ff166103115760405162461bcd60e51b815260040161030890610838565b60405180910390fd5b6001600160a01b03919091166000908152600260205260409020805460ff1916911515919091179055565b3360009081526002602052604090205460ff1661036b5760405162461bcd60e51b815260040161030890610838565b600480546040516335313c2160e11b81526001600160a01b0385811693820193909352911690636a627842906024016020604051808303816000875af11580156103b9573d6000803e3d6000fd5b505050506040513d601f19601f820116820180604052508101906103dd919061086d565b6001556004805460405163e0df5b6f60e01b81526001600160a01b039091169163e0df5b6f9161040f91859101610886565b600060405180830381600087803b15801561042957600080fd5b505af115801561043d573d6000803e3d6000fd5b5050600454600154604080513381526001600160a01b0380891660208301529093169083015260608201527f9132c54de89cd720ee79091e23db99b74f73b62523a002a2bf8533f705e6bae1925060800190505b60405180910390a15050565b3360009081526002602052604090205460ff166104cc5760405162461bcd60e51b815260040161030890610838565b60035460405163e0df5b6f60e01b81526001600160a01b039091169063e0df5b6f906104fc908490600401610886565b600060405180830381600087803b15801561051657600080fd5b505af115801561052a573d6000803e3d6000fd5b50506003546040516340d097c360e01b81526001600160a01b03868116600483015290911692506340d097c391506024016020604051808303816000875af115801561057a573d6000803e3d6000fd5b505050506040513d601f19601f8201168201806040525081019061059e919061086d565b6001819055600354604080513381526001600160a01b0380871660208301529092169082015260608101919091527f9132c54de89cd720ee79091e23db99b74f73b62523a002a2bf8533f705e6bae190608001610491565b6105fe610634565b6001600160a01b03811661062857604051631e4fbdf760e01b815260006004820152602401610308565b61063181610661565b50565b6000546001600160a01b031633146102d75760405163118cdaa760e01b8152336004820152602401610308565b600080546001600160a01b038381166001600160a01b0319831681178455604051919092169283917f8be0079c531659141344cd1fd0a4f28419497f9722a3daafe3b4186f6b6457e09190a35050565b6001600160a01b038116811461063157600080fd5b6000602082840312156106d857600080fd5b81356106e3816106b1565b9392505050565b6000602082840312156106fc57600080fd5b5035919050565b6000806040838503121561071657600080fd5b8235610721816106b1565b91506020830135801515811461073657600080fd5b809150509250929050565b634e487b7160e01b600052604160045260246000fd5b6000806040838503121561076a57600080fd5b8235610775816106b1565b9150602083013567ffffffffffffffff8082111561079257600080fd5b818501915085601f8301126107a657600080fd5b8135818111156107b8576107b8610741565b604051601f8201601f19908116603f011681019083821181831017156107e0576107e0610741565b816040528281528860208487010111156107f957600080fd5b8260208601602083013760006020848301015280955050505050509250929050565b60006020828403121561082d57600080fd5b81516106e3816106b1565b6020808252818101527f4f6e6c79206120766572696669656420636f6d70616e792063616e206d696e74604082015260600190565b60006020828403121561087f57600080fd5b5051919050565b600060208083528351808285015260005b818110156108b357858101830151858201604001528201610897565b506000604082860101526040601f19601f830116850101925050509291505056fea2646970667358221220911505f0054a41b2eaedd0da166bc5241f5d907809c34e2ac4764fbbceb5c7fc64736f6c6343000814003360806040523480156200001157600080fd5b506040516200184138038062001841833981016040819052620000349162000133565b806040518060400160405280600d81526020016c50726f6f664f6644656772656560981b81525060405180604001604052806003815260200162141bd160ea1b81525081600090816200008891906200020a565b5060016200009782826200020a565b5050506001600160a01b038116620000c957604051631e4fbdf760e01b81526000600482015260240160405180910390fd5b620000d481620000e1565b50506000600855620002d6565b600780546001600160a01b038381166001600160a01b0319831681179093556040519116919082907f8be0079c531659141344cd1fd0a4f28419497f9722a3daafe3b4186f6b6457e090600090a35050565b6000602082840312156200014657600080fd5b81516001600160a01b03811681146200015e57600080fd5b9392505050565b634e487b7160e01b600052604160045260246000fd5b600181811c908216806200019057607f821691505b602082108103620001b157634e487b7160e01b600052602260045260246000fd5b50919050565b601f8211156200020557600081815260208120601f850160051c81016020861015620001e05750805b601f850160051c820191505b818110156200020157828155600101620001ec565b5050505b505050565b81516001600160401b0381111562000226576200022662000165565b6200023e816200023784546200017b565b84620001b7565b602080601f8311600181146200027657600084156200025d5750858301515b600019600386901b1c1916600185901b17855562000201565b600085815260208120601f198616915b82811015620002a75788860151825594840194600190910190840162000286565b5085821015620002c65787850151600019600388901b60f8161c191681555b5050505050600190811b01905550565b61155b80620002e66000396000f3fe608060405234801561001057600080fd5b50600436106101375760003560e01c80636352211e116100b8578063a22cb4651161007c578063a22cb46514610267578063b88d4fde1461027a578063c87b56dd1461028d578063e0df5b6f146102a0578063e985e9c5146102b3578063f2fde38b146102c657600080fd5b80636352211e1461022057806370a0823114610233578063715018a6146102465780638da5cb5b1461024e57806395d89b411461025f57600080fd5b806323b872dd116100ff57806323b872dd146101cb57806324822514146101de57806340d097c3146101e757806342842e0e146101fa57806342966c681461020d57600080fd5b8063010a38f51461013c57806301ffc9a71461015357806306fdde0314610176578063081812fc1461018b578063095ea7b3146101b6575b600080fd5b6008545b6040519081526020015b60405180910390f35b610166610161366004611037565b6102d9565b604051901515815260200161014a565b61017e6102ea565b60405161014a91906110a4565b61019e6101993660046110b7565b61037c565b6040516001600160a01b03909116815260200161014a565b6101c96101c43660046110ec565b6103a5565b005b6101c96101d9366004611116565b6103b4565b61014060085481565b6101406101f5366004611152565b610444565b6101c9610208366004611116565b6104e1565b6101c961021b3660046110b7565b610501565b61019e61022e3660046110b7565b61050d565b610140610241366004611152565b610518565b6101c9610560565b6007546001600160a01b031661019e565b61017e610574565b6101c961027536600461116d565b610583565b6101c9610288366004611235565b61058e565b61017e61029b3660046110b7565b6105a5565b6101c96102ae3660046112b1565b6105b0565b6101666102c13660046112fa565b6105df565b6101c96102d4366004611152565b61060d565b60006102e482610648565b92915050565b6060600080546102f99061132d565b80601f01602080910402602001604051908101604052809291908181526020018280546103259061132d565b80156103725780601f1061034757610100808354040283529160200191610372565b820191906000526020600020905b81548152906001019060200180831161035557829003601f168201915b5050505050905090565b60006103878261066d565b506000828152600460205260409020546001600160a01b03166102e4565b6103b08282336106a6565b5050565b6001600160a01b0382166103e357604051633250574960e11b8152600060048201526024015b60405180910390fd5b60006103f08383336106b3565b9050836001600160a01b0316816001600160a01b03161461043e576040516364283d7b60e01b81526001600160a01b03808616600483015260248201849052821660448201526064016103da565b50505050565b600080600854116104975760405162461bcd60e51b815260206004820152601f60248201527f546f6b656e204944206d7573742062652067726561746572207468616e20300060448201526064016103da565b6104a3826008546107ac565b600880549060006104b383611367565b909155505060088054600090815260096020526040902080546001600160a01b031916331790555492915050565b6104fc8383836040518060200160405280600081525061058e565b505050565b6103b0600082336106b3565b60006102e48261066d565b60006001600160a01b038216610544576040516322718ad960e21b8152600060048201526024016103da565b506001600160a01b031660009081526003602052604090205490565b6105686107c6565b61057260006107f3565b565b6060600180546102f99061132d565b6103b0338383610845565b6105998484846103b4565b61043e848484846108e4565b60606102e482610a0d565b6008546000036105d057600880549060006105ca83611367565b91905055505b6105dc60085482610b3b565b50565b6001600160a01b03918216600090815260056020908152604080832093909416825291909152205460ff1690565b6106156107c6565b6001600160a01b03811661063f57604051631e4fbdf760e01b8152600060048201526024016103da565b6105dc816107f3565b60006001600160e01b03198216632483248360e11b14806102e457506102e482610b8b565b6000818152600260205260408120546001600160a01b0316806102e457604051637e27328960e01b8152600481018490526024016103da565b6104fc8383836001610bdb565b6000828152600260205260408120546001600160a01b03908116908316156106e0576106e0818486610ce1565b6001600160a01b0381161561071e576106fd600085600080610bdb565b6001600160a01b038116600090815260036020526040902080546000190190555b6001600160a01b0385161561074d576001600160a01b0385166000908152600360205260409020805460010190555b60008481526002602052604080822080546001600160a01b0319166001600160a01b0389811691821790925591518793918516917fddf252ad1be2c89b69c2b068fc378daa952ba7f163c4a11628f55a4df523b3ef91a4949350505050565b6103b0828260405180602001604052806000815250610d45565b6007546001600160a01b031633146105725760405163118cdaa760e01b81523360048201526024016103da565b600780546001600160a01b038381166001600160a01b0319831681179093556040519116919082907f8be0079c531659141344cd1fd0a4f28419497f9722a3daafe3b4186f6b6457e090600090a35050565b6001600160a01b03821661087757604051630b61174360e31b81526001600160a01b03831660048201526024016103da565b6001600160a01b03838116600081815260056020908152604080832094871680845294825291829020805460ff191686151590811790915591519182527f17307eab39ab6107e8899845ad3d59bd9653f200f220920489ca2b5937696c31910160405180910390a3505050565b6001600160a01b0383163b1561043e57604051630a85bd0160e11b81526001600160a01b0384169063150b7a029061092690339088908790879060040161138e565b6020604051808303816000875af1925050508015610961575060408051601f3d908101601f1916820190925261095e918101906113cb565b60015b6109ca573d80801561098f576040519150601f19603f3d011682016040523d82523d6000602084013e610994565b606091505b5080516000036109c257604051633250574960e11b81526001600160a01b03851660048201526024016103da565b805181602001fd5b6001600160e01b03198116630a85bd0160e11b14610a0657604051633250574960e11b81526001600160a01b03851660048201526024016103da565b5050505050565b6060610a188261066d565b5060008281526006602052604081208054610a329061132d565b80601f0160208091040260200160405190810160405280929190818152602001828054610a5e9061132d565b8015610aab5780601f10610a8057610100808354040283529160200191610aab565b820191906000526020600020905b815481529060010190602001808311610a8e57829003601f168201915b505050505090506000610ae660408051808201909152601581527468747470733a2f2f697066732e696f2f697066732f60581b602082015290565b90508051600003610af8575092915050565b815115610b2a578082604051602001610b129291906113e8565b60405160208183030381529060405292505050919050565b610b3384610d5c565b949350505050565b6000828152600660205260409020610b538282611465565b506040518281527ff8e1a15aba9398e019f0b49df1a4fde98ee17ae345cb5f6b5e2c27f5033e8ce79060200160405180910390a15050565b60006001600160e01b031982166380ac58cd60e01b1480610bbc57506001600160e01b03198216635b5e139f60e01b145b806102e457506301ffc9a760e01b6001600160e01b03198316146102e4565b8080610bef57506001600160a01b03821615155b15610cb1576000610bff8461066d565b90506001600160a01b03831615801590610c2b5750826001600160a01b0316816001600160a01b031614155b8015610c3e5750610c3c81846105df565b155b15610c675760405163a9fbf51f60e01b81526001600160a01b03841660048201526024016103da565b8115610caf5783856001600160a01b0316826001600160a01b03167f8c5be1e5ebec7d5bd14f71427d1e84f3dd0314c0f7b2291e5b200ac8c7c3b92560405160405180910390a45b505b5050600090815260046020526040902080546001600160a01b0319166001600160a01b0392909216919091179055565b610cec838383610dee565b6104fc576001600160a01b038316610d1a57604051637e27328960e01b8152600481018290526024016103da565b60405163177e802f60e01b81526001600160a01b0383166004820152602481018290526044016103da565b610d4f8383610e51565b6104fc60008484846108e4565b6060610d678261066d565b506000610d9c60408051808201909152601581527468747470733a2f2f697066732e696f2f697066732f60581b602082015290565b90506000815111610dbc5760405180602001604052806000815250610de7565b80610dc684610eb6565b604051602001610dd79291906113e8565b6040516020818303038152906040525b9392505050565b60006001600160a01b03831615801590610b335750826001600160a01b0316846001600160a01b03161480610e285750610e2884846105df565b80610b335750506000908152600460205260409020546001600160a01b03908116911614919050565b6001600160a01b038216610e7b57604051633250574960e11b8152600060048201526024016103da565b6000610e89838360006106b3565b90506001600160a01b038116156104fc576040516339e3563760e11b8152600060048201526024016103da565b60606000610ec383610f49565b600101905060008167ffffffffffffffff811115610ee357610ee36111a9565b6040519080825280601f01601f191660200182016040528015610f0d576020820181803683370190505b5090508181016020015b600019016f181899199a1a9b1b9c1cb0b131b232b360811b600a86061a8153600a8504945084610f1757509392505050565b60008072184f03e93ff9f4daa797ed6e38ed64bf6a1f0160401b8310610f885772184f03e93ff9f4daa797ed6e38ed64bf6a1f0160401b830492506040015b6d04ee2d6d415b85acef81000000008310610fb4576d04ee2d6d415b85acef8100000000830492506020015b662386f26fc100008310610fd257662386f26fc10000830492506010015b6305f5e1008310610fea576305f5e100830492506008015b6127108310610ffe57612710830492506004015b60648310611010576064830492506002015b600a83106102e45760010192915050565b6001600160e01b0319811681146105dc57600080fd5b60006020828403121561104957600080fd5b8135610de781611021565b60005b8381101561106f578181015183820152602001611057565b50506000910152565b60008151808452611090816020860160208601611054565b601f01601f19169290920160200192915050565b602081526000610de76020830184611078565b6000602082840312156110c957600080fd5b5035919050565b80356001600160a01b03811681146110e757600080fd5b919050565b600080604083850312156110ff57600080fd5b611108836110d0565b946020939093013593505050565b60008060006060848603121561112b57600080fd5b611134846110d0565b9250611142602085016110d0565b9150604084013590509250925092565b60006020828403121561116457600080fd5b610de7826110d0565b6000806040838503121561118057600080fd5b611189836110d0565b91506020830135801515811461119e57600080fd5b809150509250929050565b634e487b7160e01b600052604160045260246000fd5b600067ffffffffffffffff808411156111da576111da6111a9565b604051601f8501601f19908116603f01168101908282118183101715611202576112026111a9565b8160405280935085815286868601111561121b57600080fd5b858560208301376000602087830101525050509392505050565b6000806000806080858703121561124b57600080fd5b611254856110d0565b9350611262602086016110d0565b925060408501359150606085013567ffffffffffffffff81111561128557600080fd5b8501601f8101871361129657600080fd5b6112a5878235602084016111bf565b91505092959194509250565b6000602082840312156112c357600080fd5b813567ffffffffffffffff8111156112da57600080fd5b8201601f810184136112eb57600080fd5b610b33848235602084016111bf565b6000806040838503121561130d57600080fd5b611316836110d0565b9150611324602084016110d0565b90509250929050565b600181811c9082168061134157607f821691505b60208210810361136157634e487b7160e01b600052602260045260246000fd5b50919050565b60006001820161138757634e487b7160e01b600052601160045260246000fd5b5060010190565b6001600160a01b03858116825284166020820152604081018390526080606082018190526000906113c190830184611078565b9695505050505050565b6000602082840312156113dd57600080fd5b8151610de781611021565b600083516113fa818460208801611054565b83519083019061140e818360208801611054565b01949350505050565b601f8211156104fc57600081815260208120601f850160051c8101602086101561143e5750805b601f850160051c820191505b8181101561145d5782815560010161144a565b505050505050565b815167ffffffffffffffff81111561147f5761147f6111a9565b6114938161148d845461132d565b84611417565b602080601f8311600181146114c857600084156114b05750858301515b600019600386901b1c1916600185901b17855561145d565b600085815260208120601f198616915b828110156114f7578886015182559484019460019091019084016114d8565b50858210156115155787850151600019600388901b60f8161c191681555b5050505050600190811b0190555056fea26469706673582212208af9ddecc9e0336b93deea0162b22d71e66dd7f823c6de51982d03400556e4ee64736f6c6343000814003360806040523480156200001157600080fd5b50604051620017d4380380620017d4833981016040819052620000349162000131565b806040518060400160405280600b81526020016a50726f6f664f66576f726b60a81b81525060405180604001604052806003815260200162506f5760e81b815250816000908162000086919062000208565b50600162000095828262000208565b5050506001600160a01b038116620000c757604051631e4fbdf760e01b81526000600482015260240160405180910390fd5b620000d281620000df565b50506000600855620002d4565b600780546001600160a01b038381166001600160a01b0319831681179093556040519116919082907f8be0079c531659141344cd1fd0a4f28419497f9722a3daafe3b4186f6b6457e090600090a35050565b6000602082840312156200014457600080fd5b81516001600160a01b03811681146200015c57600080fd5b9392505050565b634e487b7160e01b600052604160045260246000fd5b600181811c908216806200018e57607f821691505b602082108103620001af57634e487b7160e01b600052602260045260246000fd5b50919050565b601f8211156200020357600081815260208120601f850160051c81016020861015620001de5750805b601f850160051c820191505b81811015620001ff57828155600101620001ea565b5050505b505050565b81516001600160401b0381111562000224576200022462000163565b6200023c8162000235845462000179565b84620001b5565b602080601f8311600181146200027457600084156200025b5750858301515b600019600386901b1c1916600185901b178555620001ff565b600085815260208120601f198616915b82811015620002a55788860151825594840194600190910190840162000284565b5085821015620002c45787850151600019600388901b60f8161c191681555b5050505050600190811b01905550565b6114f080620002e46000396000f3fe608060405234801561001057600080fd5b506004361061012c5760003560e01c806370a08231116100ad578063b88d4fde11610071578063b88d4fde1461025c578063c87b56dd1461026f578063e0df5b6f14610282578063e985e9c514610295578063f2fde38b146102a857600080fd5b806370a0823114610215578063715018a6146102285780638da5cb5b1461023057806395d89b4114610241578063a22cb4651461024957600080fd5b806323b872dd116100f457806323b872dd146101c057806324822514146101d357806342842e0e146101dc5780636352211e146101ef5780636a6278421461020257600080fd5b8063010a38f51461013157806301ffc9a71461014857806306fdde031461016b578063081812fc14610180578063095ea7b3146101ab575b600080fd5b6008545b6040519081526020015b60405180910390f35b61015b610156366004610fcc565b6102bb565b604051901515815260200161013f565b6101736102cc565b60405161013f9190611039565b61019361018e36600461104c565b61035e565b6040516001600160a01b03909116815260200161013f565b6101be6101b9366004611081565b610387565b005b6101be6101ce3660046110ab565b610396565b61013560085481565b6101be6101ea3660046110ab565b610426565b6101936101fd36600461104c565b610446565b6101356102103660046110e7565b610451565b6101356102233660046110e7565b6104cd565b6101be610515565b6007546001600160a01b0316610193565b610173610529565b6101be610257366004611102565b610538565b6101be61026a3660046111ca565b610543565b61017361027d36600461104c565b61055a565b6101be610290366004611246565b610565565b61015b6102a336600461128f565b610574565b6101be6102b63660046110e7565b6105a2565b60006102c6826105dd565b92915050565b6060600080546102db906112c2565b80601f0160208091040260200160405190810160405280929190818152602001828054610307906112c2565b80156103545780601f1061032957610100808354040283529160200191610354565b820191906000526020600020905b81548152906001019060200180831161033757829003601f168201915b5050505050905090565b600061036982610602565b506000828152600460205260409020546001600160a01b03166102c6565b61039282823361063b565b5050565b6001600160a01b0382166103c557604051633250574960e11b8152600060048201526024015b60405180910390fd5b60006103d2838333610648565b9050836001600160a01b0316816001600160a01b031614610420576040516364283d7b60e01b81526001600160a01b03808616600483015260248201849052821660448201526064016103bc565b50505050565b61044183838360405180602001604052806000815250610543565b505050565b60006102c682610602565b6008805460009182610462836112fc565b91905055506000600854116104b95760405162461bcd60e51b815260206004820152601f60248201527f546f6b656e204944206d7573742062652067726561746572207468616e20300060448201526064016103bc565b6104c582600854610741565b505060085490565b60006001600160a01b0382166104f9576040516322718ad960e21b8152600060048201526024016103bc565b506001600160a01b031660009081526003602052604090205490565b61051d61075b565b6105276000610788565b565b6060600180546102db906112c2565b6103923383836107da565b61054e848484610396565b61042084848484610879565b60606102c6826109a2565b61057160085482610ad0565b50565b6001600160a01b03918216600090815260056020908152604080832093909416825291909152205460ff1690565b6105aa61075b565b6001600160a01b0381166105d457604051631e4fbdf760e01b8152600060048201526024016103bc565b61057181610788565b60006001600160e01b03198216632483248360e11b14806102c657506102c682610b20565b6000818152600260205260408120546001600160a01b0316806102c657604051637e27328960e01b8152600481018490526024016103bc565b6104418383836001610b70565b6000828152600260205260408120546001600160a01b039081169083161561067557610675818486610c76565b6001600160a01b038116156106b357610692600085600080610b70565b6001600160a01b038116600090815260036020526040902080546000190190555b6001600160a01b038516156106e2576001600160a01b0385166000908152600360205260409020805460010190555b60008481526002602052604080822080546001600160a01b0319166001600160a01b0389811691821790925591518793918516917fddf252ad1be2c89b69c2b068fc378daa952ba7f163c4a11628f55a4df523b3ef91a4949350505050565b610392828260405180602001604052806000815250610cda565b6007546001600160a01b031633146105275760405163118cdaa760e01b81523360048201526024016103bc565b600780546001600160a01b038381166001600160a01b0319831681179093556040519116919082907f8be0079c531659141344cd1fd0a4f28419497f9722a3daafe3b4186f6b6457e090600090a35050565b6001600160a01b03821661080c57604051630b61174360e31b81526001600160a01b03831660048201526024016103bc565b6001600160a01b03838116600081815260056020908152604080832094871680845294825291829020805460ff191686151590811790915591519182527f17307eab39ab6107e8899845ad3d59bd9653f200f220920489ca2b5937696c31910160405180910390a3505050565b6001600160a01b0383163b1561042057604051630a85bd0160e11b81526001600160a01b0384169063150b7a02906108bb903390889087908790600401611323565b6020604051808303816000875af19250505080156108f6575060408051601f3d908101601f191682019092526108f391810190611360565b60015b61095f573d808015610924576040519150601f19603f3d011682016040523d82523d6000602084013e610929565b606091505b50805160000361095757604051633250574960e11b81526001600160a01b03851660048201526024016103bc565b805181602001fd5b6001600160e01b03198116630a85bd0160e11b1461099b57604051633250574960e11b81526001600160a01b03851660048201526024016103bc565b5050505050565b60606109ad82610602565b50600082815260066020526040812080546109c7906112c2565b80601f01602080910402602001604051908101604052809291908181526020018280546109f3906112c2565b8015610a405780601f10610a1557610100808354040283529160200191610a40565b820191906000526020600020905b815481529060010190602001808311610a2357829003601f168201915b505050505090506000610a7b60408051808201909152601581527468747470733a2f2f697066732e696f2f697066732f60581b602082015290565b90508051600003610a8d575092915050565b815115610abf578082604051602001610aa792919061137d565b60405160208183030381529060405292505050919050565b610ac884610cf1565b949350505050565b6000828152600660205260409020610ae882826113fa565b506040518281527ff8e1a15aba9398e019f0b49df1a4fde98ee17ae345cb5f6b5e2c27f5033e8ce79060200160405180910390a15050565b60006001600160e01b031982166380ac58cd60e01b1480610b5157506001600160e01b03198216635b5e139f60e01b145b806102c657506301ffc9a760e01b6001600160e01b03198316146102c6565b8080610b8457506001600160a01b03821615155b15610c46576000610b9484610602565b90506001600160a01b03831615801590610bc05750826001600160a01b0316816001600160a01b031614155b8015610bd35750610bd18184610574565b155b15610bfc5760405163a9fbf51f60e01b81526001600160a01b03841660048201526024016103bc565b8115610c445783856001600160a01b0316826001600160a01b03167f8c5be1e5ebec7d5bd14f71427d1e84f3dd0314c0f7b2291e5b200ac8c7c3b92560405160405180910390a45b505b5050600090815260046020526040902080546001600160a01b0319166001600160a01b0392909216919091179055565b610c81838383610d83565b610441576001600160a01b038316610caf57604051637e27328960e01b8152600481018290526024016103bc565b60405163177e802f60e01b81526001600160a01b0383166004820152602481018290526044016103bc565b610ce48383610de6565b6104416000848484610879565b6060610cfc82610602565b506000610d3160408051808201909152601581527468747470733a2f2f697066732e696f2f697066732f60581b602082015290565b90506000815111610d515760405180602001604052806000815250610d7c565b80610d5b84610e4b565b604051602001610d6c92919061137d565b6040516020818303038152906040525b9392505050565b60006001600160a01b03831615801590610ac85750826001600160a01b0316846001600160a01b03161480610dbd5750610dbd8484610574565b80610ac85750506000908152600460205260409020546001600160a01b03908116911614919050565b6001600160a01b038216610e1057604051633250574960e11b8152600060048201526024016103bc565b6000610e1e83836000610648565b90506001600160a01b03811615610441576040516339e3563760e11b8152600060048201526024016103bc565b60606000610e5883610ede565b600101905060008167ffffffffffffffff811115610e7857610e7861113e565b6040519080825280601f01601f191660200182016040528015610ea2576020820181803683370190505b5090508181016020015b600019016f181899199a1a9b1b9c1cb0b131b232b360811b600a86061a8153600a8504945084610eac57509392505050565b60008072184f03e93ff9f4daa797ed6e38ed64bf6a1f0160401b8310610f1d5772184f03e93ff9f4daa797ed6e38ed64bf6a1f0160401b830492506040015b6d04ee2d6d415b85acef81000000008310610f49576d04ee2d6d415b85acef8100000000830492506020015b662386f26fc100008310610f6757662386f26fc10000830492506010015b6305f5e1008310610f7f576305f5e100830492506008015b6127108310610f9357612710830492506004015b60648310610fa5576064830492506002015b600a83106102c65760010192915050565b6001600160e01b03198116811461057157600080fd5b600060208284031215610fde57600080fd5b8135610d7c81610fb6565b60005b83811015611004578181015183820152602001610fec565b50506000910152565b60008151808452611025816020860160208601610fe9565b601f01601f19169290920160200192915050565b602081526000610d7c602083018461100d565b60006020828403121561105e57600080fd5b5035919050565b80356001600160a01b038116811461107c57600080fd5b919050565b6000806040838503121561109457600080fd5b61109d83611065565b946020939093013593505050565b6000806000606084860312156110c057600080fd5b6110c984611065565b92506110d760208501611065565b9150604084013590509250925092565b6000602082840312156110f957600080fd5b610d7c82611065565b6000806040838503121561111557600080fd5b61111e83611065565b91506020830135801515811461113357600080fd5b809150509250929050565b634e487b7160e01b600052604160045260246000fd5b600067ffffffffffffffff8084111561116f5761116f61113e565b604051601f8501601f19908116603f011681019082821181831017156111975761119761113e565b816040528093508581528686860111156111b057600080fd5b858560208301376000602087830101525050509392505050565b600080600080608085870312156111e057600080fd5b6111e985611065565b93506111f760208601611065565b925060408501359150606085013567ffffffffffffffff81111561121a57600080fd5b8501601f8101871361122b57600080fd5b61123a87823560208401611154565b91505092959194509250565b60006020828403121561125857600080fd5b813567ffffffffffffffff81111561126f57600080fd5b8201601f8101841361128057600080fd5b610ac884823560208401611154565b600080604083850312156112a257600080fd5b6112ab83611065565b91506112b960208401611065565b90509250929050565b600181811c908216806112d657607f821691505b6020821081036112f657634e487b7160e01b600052602260045260246000fd5b50919050565b60006001820161131c57634e487b7160e01b600052601160045260246000fd5b5060010190565b6001600160a01b03858116825284166020820152604081018390526080606082018190526000906113569083018461100d565b9695505050505050565b60006020828403121561137257600080fd5b8151610d7c81610fb6565b6000835161138f818460208801610fe9565b8351908301906113a3818360208801610fe9565b01949350505050565b601f82111561044157600081815260208120601f850160051c810160208610156113d35750805b601f850160051c820191505b818110156113f2578281556001016113df565b505050505050565b815167ffffffffffffffff8111156114145761141461113e565b6114288161142284546112c2565b846113ac565b602080601f83116001811461145d57600084156114455750858301515b600019600386901b1c1916600185901b1785556113f2565b600085815260208120601f198616915b8281101561148c5788860151825594840194600190910190840161146d565b50858210156114aa5787850151600019600388901b60f8161c191681555b5050505050600190811b0190555056fea264697066735822122010e1a57c72af36e856ad8a252cf8c9979eae4d29b2f978cadfa6a18d38b5b2a164736f6c63430008140033",
  "devdoc": {
    "author": "BuidlGuidl",
    "errors": {
      "OwnableInvalidOwner(address)": [
        {
          "details": "The owner is not a valid owner account. (eg. `address(0)`)"
        }
      ],
      "OwnableUnauthorizedAccount(address)": [
        {
          "details": "The caller account is not authorized to perform an operation."
        }
      ]
    },
    "kind": "dev",
    "methods": {
      "owner()": {
        "details": "Returns the address of the current owner."
      },
      "renounceOwnership()": {
        "details": "Leaves the contract without owner. It will not be possible to call `onlyOwner` functions. Can only be called by the current owner. NOTE: Renouncing ownership will leave the contract without an owner, thereby disabling any functionality that is only available to the owner."
      },
      "transferOwnership(address)": {
        "details": "Transfers ownership of the contract to a new account (`newOwner`). Can only be called by the current owner."
      }
    },
    "version": 1
  },
  "userdoc": {
    "kind": "user",
    "methods": {},
    "notice": "A smart contract that allows changing a state variable of the contract and tracking the changes It also allows the owner to withdraw the Ether in the contract",
    "version": 1
  },
  "storageLayout": {
    "storage": [
      {
        "astId": 8,
        "contract": "contracts/NFTManager.sol:Manager",
        "label": "_owner",
        "offset": 0,
        "slot": "0",
        "type": "t_address"
      },
      {
        "astId": 3138,
        "contract": "contracts/NFTManager.sol:Manager",
        "label": "_tokenId",
        "offset": 0,
        "slot": "1",
        "type": "t_uint256"
      },
      {
        "astId": 3142,
        "contract": "contracts/NFTManager.sol:Manager",
        "label": "companies",
        "offset": 0,
        "slot": "2",
        "type": "t_mapping(t_address,t_bool)"
      },
      {
        "astId": 3145,
        "contract": "contracts/NFTManager.sol:Manager",
        "label": "degreeNFT",
        "offset": 0,
        "slot": "3",
        "type": "t_contract(ProofOfDegree)3494"
      },
      {
        "astId": 3148,
        "contract": "contracts/NFTManager.sol:Manager",
        "label": "workNFT",
        "offset": 0,
        "slot": "4",
        "type": "t_contract(ProofOfWork)3612"
      }
    ],
    "types": {
      "t_address": {
        "encoding": "inplace",
        "label": "address",
        "numberOfBytes": "20"
      },
      "t_bool": {
        "encoding": "inplace",
        "label": "bool",
        "numberOfBytes": "1"
      },
      "t_contract(ProofOfDegree)3494": {
        "encoding": "inplace",
        "label": "contract ProofOfDegree",
        "numberOfBytes": "20"
      },
      "t_contract(ProofOfWork)3612": {
        "encoding": "inplace",
        "label": "contract ProofOfWork",
        "numberOfBytes": "20"
      },
      "t_mapping(t_address,t_bool)": {
        "encoding": "mapping",
        "key": "t_address",
        "label": "mapping(address => bool)",
        "numberOfBytes": "32",
        "value": "t_bool"
      },
      "t_uint256": {
        "encoding": "inplace",
        "label": "uint256",
        "numberOfBytes": "32"
      }
    }
  }
}